:100000000C9434000C943E000C943E000C943E0082
:100010000C943E000C943E000C943E000C943E0068
:100020000C943E000C943E000C943E000C943E0058
:100030000C943E000C943E000C943E000C943E0048
:100040000C943E000C943E000C943E000C943E0038
:100050000C943E000C943E000C943E000C943E0028
:100060000C943E000C943E0011241FBECFEFD8E04C
:10007000DEBFCDBF0E9483000C9491000C94000061
:100080008AB18C6F8AB98CEF8BB9259A08950E943A
:1000900040002D9A2FEF89E698E121508040904052
:1000A000E1F700C000002D982FEF89E698E121507C
:1000B00080409040E1F700C00000EBCF83E38093E5
:1000C000B000E1EBF0E080818160808380E8809384
:1000D000B40008951092C50087E68093C40086E0BE
:1000E0008093C200E1ECF0E080818061808308951C
:1000F0008091C00087FFFCCF8091C6000895539A7D
:100100008FEF84B908950E947F000E946A000E94C8
:100110005E000E94780080FD02C02D98FACF2D9AD3
:06012000F8CFF894FFCFB8
:00000001FF
