:100000000C9434000C9449000C9449000C94490061
:100010000C9449000C9449000C9449000C9449003C
:100020000C9449000C9449000C9449000C9449002C
:100030000C9449000C9449000C9449000C9449001C
:100040000C9449000C9449000C9449000C9449000C
:100050000C9449000C9449000C9449000C944900FC
:100060000C9449000C94490011241FBECFEFD8E036
:10007000DEBFCDBF11E0A0E0B1E0E4E6F1E002C0F8
:1000800005900D92A230B107D9F70E949D000C9403
:10009000B0000C9400008AB18C6F8AB98CEF8BB9D8
:1000A000259A08950E944B002D9A2FEF89E698E13A
:1000B000215080409040E1F700C000002D982FEFC4
:1000C00089E698E1215080409040E1F700C00000AF
:1000D000EBCF83E38093B000E1EBF0E080818160BF
:1000E000808380E88093B40008951092C50087E66D
:1000F0008093C40086E08093C200E1ECF0E0808150
:100100008861808308958091C00087FFFCCF809133
:10011000C60008959091C00095FFFCCF8093C60063
:1001200080E008958093C6008091C00086FFFCCFD8
:100130000895539A8FEF84B908950E9499000E9400
:1001400075002D9A88E40E948A000E94830080FD39
:10015000F8CF2D98F7CF8091C600809300010895C5
:04016000F894FFCF41
:020164000A008F
:00000001FF
