:100000000C9434000C9449000C9449000C94490061
:100010000C9449000C9449000C9449000C9449003C
:100020000C9449000C9449000C9449000C9449002C
:100030000C9449000C9449000C9449000C9449001C
:100040000C9449000C9449000C9449000C9449000C
:100050000C9449000C9449000C9449000C944900FC
:100060000C9449000C94490011241FBECFEFD8E036
:10007000DEBFCDBF11E0A0E0B1E0E0E7F1E002C0FB
:1000800005900D92A230B107D9F70E94A0000C9400
:10009000B6000C9400008AB18C6F8AB98CEF8BB9D2
:1000A000259A08950E944B002D9A2FEF89E698E13A
:1000B000215080409040E1F700C000002D982FEFC4
:1000C00089E698E1215080409040E1F700C00000AF
:1000D000EBCF83E38093B000E1EBF0E080818160BF
:1000E000808380E88093B40008951092C50087E66D
:1000F0008093C40086E08093C200E1ECF0E0808150
:100100008861808308958091C00087FD02C02C9A89
:10011000FACF2C988091C60008959091C00095FF69
:10012000FCCF8093C60080E008958093C600809144
:10013000C00086FFFCCF0895539A8FEF84B90895CD
:100140000E949C000E9475002D9A0E94830080FDF1
:1001500003C02D9880E302C02D9A81E30E948D0098
:10016000F4CF8091C600809300010895F894FFCFEA
:020170000A0083
:00000001FF
